{
  "contractName": "Counter",
  "abi": [
    {
      "inputs": [
        {
          "internalType": "uint256",
          "name": "x",
          "type": "uint256"
        }
      ],
      "stateMutability": "nonpayable",
      "type": "constructor"
    },
    {
      "inputs": [],
      "name": "counter",
      "outputs": [
        {
          "internalType": "uint256",
          "name": "",
          "type": "uint256"
        }
      ],
      "stateMutability": "view",
      "type": "function",
      "constant": true
    },
    {
      "inputs": [],
      "name": "count",
      "outputs": [],
      "stateMutability": "nonpayable",
      "type": "function"
    },
    {
      "inputs": [
        {
          "internalType": "uint256",
          "name": "x",
          "type": "uint256"
        }
      ],
      "name": "add",
      "outputs": [],
      "stateMutability": "nonpayable",
      "type": "function"
    }
  ],
  "bytecode": "0x608060405234801561001057600080fd5b506040516102b33803806102b383398181016040528101906100329190610054565b806000819055505061009e565b60008151905061004e81610087565b92915050565b60006020828403121561006657600080fd5b60006100748482850161003f565b91505092915050565b6000819050919050565b6100908161007d565b811461009b57600080fd5b50565b610206806100ad6000396000f3fe608060405234801561001057600080fd5b50600436106100415760003560e01c806306661abd146100465780631003e2d21461005057806361bc221a1461006c575b600080fd5b61004e61008a565b005b61006a600480360381019061006591906100d7565b6100a1565b005b6100746100bc565b604051610081919061010f565b60405180910390f35b6001600054610099919061012a565b600081905550565b806000808282546100b2919061012a565b9250508190555050565b60005481565b6000813590506100d1816101b9565b92915050565b6000602082840312156100e957600080fd5b60006100f7848285016100c2565b91505092915050565b61010981610180565b82525050565b60006020820190506101246000830184610100565b92915050565b600061013582610180565b915061014083610180565b9250827fffffffffffffffffffffffffffffffffffffffffffffffffffffffffffffffff038211156101755761017461018a565b5b828201905092915050565b6000819050919050565b7f4e487b7100000000000000000000000000000000000000000000000000000000600052601160045260246000fd5b6101c281610180565b81146101cd57600080fd5b5056fea264697066735822122097a5f6b7abfdaf57bca9b7c5d7d190412357fc51035b67183e532e205e03118864736f6c63430008040033",
  "immutableReferences": {},
  "source": "// SPDX-License-Identifier: MIT\npragma solidity >=0.4.22 <0.9.0;\n\ncontract Counter {\n  uint256 public counter;\n  constructor(uint256 x) {\n    counter = x;\n  }\n\n  function count() public {\n    counter = counter + 1;\n  }\n\n  function add(uint256 x) public {\n    counter += x;\n  }\n}\n",
  "sourcePath": "/Users/jacklee/Projects/Blockchain/upchaincamp/week1_2_truffle/contracts/Counter.sol",
  "compiler": {
    "name": "solc",
    "version": "0.8.4+commit.c7e474f2.Emscripten.clang"
  },
  "schemaVersion": "3.4.13",
  "updatedAt": "2023-03-12T04:32:52.544Z",
  "networkType": "ethereum",
  "devdoc": {
    "kind": "dev",
    "methods": {},
    "version": 1
  },
  "userdoc": {
    "kind": "user",
    "methods": {},
    "version": 1
  }
}